{
  "contractName": "NFT",
  "abi": [
    {
      "inputs": [
        {
          "internalType": "address",
          "name": "_trustedForwarder",
          "type": "address"
        }
      ],
      "stateMutability": "nonpayable",
      "type": "constructor"
    },
    {
      "anonymous": false,
      "inputs": [
        {
          "indexed": true,
          "internalType": "address",
          "name": "owner",
          "type": "address"
        },
        {
          "indexed": true,
          "internalType": "address",
          "name": "approved",
          "type": "address"
        },
        {
          "indexed": true,
          "internalType": "uint256",
          "name": "tokenId",
          "type": "uint256"
        }
      ],
      "name": "Approval",
      "type": "event"
    },
    {
      "anonymous": false,
      "inputs": [
        {
          "indexed": true,
          "internalType": "address",
          "name": "owner",
          "type": "address"
        },
        {
          "indexed": true,
          "internalType": "address",
          "name": "operator",
          "type": "address"
        },
        {
          "indexed": false,
          "internalType": "bool",
          "name": "approved",
          "type": "bool"
        }
      ],
      "name": "ApprovalForAll",
      "type": "event"
    },
    {
      "anonymous": false,
      "inputs": [
        {
          "indexed": true,
          "internalType": "address",
          "name": "from",
          "type": "address"
        },
        {
          "indexed": true,
          "internalType": "address",
          "name": "to",
          "type": "address"
        },
        {
          "indexed": true,
          "internalType": "uint256",
          "name": "tokenId",
          "type": "uint256"
        }
      ],
      "name": "Transfer",
      "type": "event"
    },
    {
      "inputs": [
        {
          "internalType": "address",
          "name": "to",
          "type": "address"
        },
        {
          "internalType": "uint256",
          "name": "tokenId",
          "type": "uint256"
        }
      ],
      "name": "approve",
      "outputs": [],
      "stateMutability": "nonpayable",
      "type": "function"
    },
    {
      "inputs": [
        {
          "internalType": "address",
          "name": "owner",
          "type": "address"
        }
      ],
      "name": "balanceOf",
      "outputs": [
        {
          "internalType": "uint256",
          "name": "",
          "type": "uint256"
        }
      ],
      "stateMutability": "view",
      "type": "function",
      "constant": true
    },
    {
      "inputs": [
        {
          "internalType": "uint256",
          "name": "tokenId",
          "type": "uint256"
        }
      ],
      "name": "getApproved",
      "outputs": [
        {
          "internalType": "address",
          "name": "",
          "type": "address"
        }
      ],
      "stateMutability": "view",
      "type": "function",
      "constant": true
    },
    {
      "inputs": [
        {
          "internalType": "address",
          "name": "owner",
          "type": "address"
        },
        {
          "internalType": "address",
          "name": "operator",
          "type": "address"
        }
      ],
      "name": "isApprovedForAll",
      "outputs": [
        {
          "internalType": "bool",
          "name": "",
          "type": "bool"
        }
      ],
      "stateMutability": "view",
      "type": "function",
      "constant": true
    },
    {
      "inputs": [
        {
          "internalType": "address",
          "name": "forwarder",
          "type": "address"
        }
      ],
      "name": "isTrustedForwarder",
      "outputs": [
        {
          "internalType": "bool",
          "name": "",
          "type": "bool"
        }
      ],
      "stateMutability": "view",
      "type": "function",
      "constant": true
    },
    {
      "inputs": [],
      "name": "name",
      "outputs": [
        {
          "internalType": "string",
          "name": "",
          "type": "string"
        }
      ],
      "stateMutability": "view",
      "type": "function",
      "constant": true
    },
    {
      "inputs": [
        {
          "internalType": "uint256",
          "name": "tokenId",
          "type": "uint256"
        }
      ],
      "name": "ownerOf",
      "outputs": [
        {
          "internalType": "address",
          "name": "",
          "type": "address"
        }
      ],
      "stateMutability": "view",
      "type": "function",
      "constant": true
    },
    {
      "inputs": [
        {
          "internalType": "address",
          "name": "from",
          "type": "address"
        },
        {
          "internalType": "address",
          "name": "to",
          "type": "address"
        },
        {
          "internalType": "uint256",
          "name": "tokenId",
          "type": "uint256"
        }
      ],
      "name": "safeTransferFrom",
      "outputs": [],
      "stateMutability": "nonpayable",
      "type": "function"
    },
    {
      "inputs": [
        {
          "internalType": "address",
          "name": "from",
          "type": "address"
        },
        {
          "internalType": "address",
          "name": "to",
          "type": "address"
        },
        {
          "internalType": "uint256",
          "name": "tokenId",
          "type": "uint256"
        },
        {
          "internalType": "bytes",
          "name": "_data",
          "type": "bytes"
        }
      ],
      "name": "safeTransferFrom",
      "outputs": [],
      "stateMutability": "nonpayable",
      "type": "function"
    },
    {
      "inputs": [
        {
          "internalType": "address",
          "name": "operator",
          "type": "address"
        },
        {
          "internalType": "bool",
          "name": "approved",
          "type": "bool"
        }
      ],
      "name": "setApprovalForAll",
      "outputs": [],
      "stateMutability": "nonpayable",
      "type": "function"
    },
    {
      "inputs": [
        {
          "internalType": "bytes4",
          "name": "interfaceId",
          "type": "bytes4"
        }
      ],
      "name": "supportsInterface",
      "outputs": [
        {
          "internalType": "bool",
          "name": "",
          "type": "bool"
        }
      ],
      "stateMutability": "view",
      "type": "function",
      "constant": true
    },
    {
      "inputs": [],
      "name": "symbol",
      "outputs": [
        {
          "internalType": "string",
          "name": "",
          "type": "string"
        }
      ],
      "stateMutability": "view",
      "type": "function",
      "constant": true
    },
    {
      "inputs": [],
      "name": "tokenCount",
      "outputs": [
        {
          "internalType": "uint256",
          "name": "_value",
          "type": "uint256"
        }
      ],
      "stateMutability": "view",
      "type": "function",
      "constant": true
    },
    {
      "inputs": [
        {
          "internalType": "uint256",
          "name": "tokenId",
          "type": "uint256"
        }
      ],
      "name": "tokenURI",
      "outputs": [
        {
          "internalType": "string",
          "name": "",
          "type": "string"
        }
      ],
      "stateMutability": "view",
      "type": "function",
      "constant": true
    },
    {
      "inputs": [
        {
          "internalType": "address",
          "name": "from",
          "type": "address"
        },
        {
          "internalType": "address",
          "name": "to",
          "type": "address"
        },
        {
          "internalType": "uint256",
          "name": "tokenId",
          "type": "uint256"
        }
      ],
      "name": "transferFrom",
      "outputs": [],
      "stateMutability": "nonpayable",
      "type": "function"
    },
    {
      "inputs": [
        {
          "internalType": "string",
          "name": "_tokenURI",
          "type": "string"
        }
      ],
      "name": "mint",
      "outputs": [
        {
          "internalType": "uint256",
          "name": "",
          "type": "uint256"
        }
      ],
      "stateMutability": "nonpayable",
      "type": "function"
    }
  ],
  "bytecode": "0x60a06040523480156200001157600080fd5b506040516200341f3803806200341f833981810160405281019062000037919062000170565b6040518060400160405280600c81526020017f4d65726368436f696e4e465400000000000000000000000000000000000000008152506040518060400160405280600881526020017f4d657263684e4654000000000000000000000000000000000000000000000000815250828073ffffffffffffffffffffffffffffffffffffffff1660808173ffffffffffffffffffffffffffffffffffffffff1681525050508160009081620000ea91906200041c565b508060019081620000fc91906200041c565b5050505062000503565b600080fd5b600073ffffffffffffffffffffffffffffffffffffffff82169050919050565b600062000138826200010b565b9050919050565b6200014a816200012b565b81146200015657600080fd5b50565b6000815190506200016a816200013f565b92915050565b60006020828403121562000189576200018862000106565b5b6000620001998482850162000159565b91505092915050565b600081519050919050565b7f4e487b7100000000000000000000000000000000000000000000000000000000600052604160045260246000fd5b7f4e487b7100000000000000000000000000000000000000000000000000000000600052602260045260246000fd5b600060028204905060018216806200022457607f821691505b6020821081036200023a5762000239620001dc565b5b50919050565b60008190508160005260206000209050919050565b60006020601f8301049050919050565b600082821b905092915050565b600060088302620002a47fffffffffffffffffffffffffffffffffffffffffffffffffffffffffffffffff8262000265565b620002b0868362000265565b95508019841693508086168417925050509392505050565b6000819050919050565b6000819050919050565b6000620002fd620002f7620002f184620002c8565b620002d2565b620002c8565b9050919050565b6000819050919050565b6200031983620002dc565b62000331620003288262000304565b84845462000272565b825550505050565b600090565b6200034862000339565b620003558184846200030e565b505050565b5b818110156200037d57620003716000826200033e565b6001810190506200035b565b5050565b601f821115620003cc57620003968162000240565b620003a18462000255565b81016020851015620003b1578190505b620003c9620003c08562000255565b8301826200035a565b50505b505050565b600082821c905092915050565b6000620003f160001984600802620003d1565b1980831691505092915050565b60006200040c8383620003de565b9150826002028217905092915050565b6200042782620001a2565b67ffffffffffffffff811115620004435762000442620001ad565b5b6200044f82546200020b565b6200045c82828562000381565b600060209050601f8311600181146200049457600084156200047f578287015190505b6200048b8582620003fe565b865550620004fb565b601f198416620004a48662000240565b60005b82811015620004ce57848901518255600182019150602085019450602081019050620004a7565b86831015620004ee5784890151620004ea601f891682620003de565b8355505b6001600288020188555050505b505050505050565b608051612f006200051f60003960006106ff0152612f006000f3fe608060405234801561001057600080fd5b50600436106101005760003560e01c806370a0823111610097578063b88d4fde11610066578063b88d4fde146102bf578063c87b56dd146102db578063d85d3d271461030b578063e985e9c51461033b57610100565b806370a082311461023757806395d89b41146102675780639f181b5e14610285578063a22cb465146102a357610100565b806323b872dd116100d357806323b872dd1461019f57806342842e0e146101bb578063572b6c05146101d75780636352211e1461020757610100565b806301ffc9a71461010557806306fdde0314610135578063081812fc14610153578063095ea7b314610183575b600080fd5b61011f600480360381019061011a91906119f9565b61036b565b60405161012c9190611a41565b60405180910390f35b61013d61044d565b60405161014a9190611af5565b60405180910390f35b61016d60048036038101906101689190611b4d565b6104df565b60405161017a9190611bbb565b60405180910390f35b61019d60048036038101906101989190611c02565b610564565b005b6101b960048036038101906101b49190611c42565b61067b565b005b6101d560048036038101906101d09190611c42565b6106db565b005b6101f160048036038101906101ec9190611c95565b6106fb565b6040516101fe9190611a41565b60405180910390f35b610221600480360381019061021c9190611b4d565b610753565b60405161022e9190611bbb565b60405180910390f35b610251600480360381019061024c9190611c95565b610804565b60405161025e9190611cd1565b60405180910390f35b61026f6108bb565b60405161027c9190611af5565b60405180910390f35b61028d61094d565b60405161029a9190611cd1565b60405180910390f35b6102bd60048036038101906102b89190611d18565b610959565b005b6102d960048036038101906102d49190611e8d565b61096f565b005b6102f560048036038101906102f09190611b4d565b6109d1565b6040516103029190611af5565b60405180910390f35b61032560048036038101906103209190611fb1565b610b22565b6040516103329190611cd1565b60405180910390f35b61035560048036038101906103509190611ffa565b610b60565b6040516103629190611a41565b60405180910390f35b60007f80ac58cd000000000000000000000000000000000000000000000000000000007bffffffffffffffffffffffffffffffffffffffffffffffffffffffff1916827bffffffffffffffffffffffffffffffffffffffffffffffffffffffff1916148061043657507f5b5e139f000000000000000000000000000000000000000000000000000000007bffffffffffffffffffffffffffffffffffffffffffffffffffffffff1916827bffffffffffffffffffffffffffffffffffffffffffffffffffffffff1916145b80610446575061044582610bf4565b5b9050919050565b60606000805461045c90612069565b80601f016020809104026020016040519081016040528092919081815260200182805461048890612069565b80156104d55780601f106104aa576101008083540402835291602001916104d5565b820191906000526020600020905b8154815290600101906020018083116104b857829003601f168201915b5050505050905090565b60006104ea82610c5e565b610529576040517f08c379a00000000000000000000000000000000000000000000000000000000081526004016105209061210c565b60405180910390fd5b6004600083815260200190815260200160002060009054906101000a900473ffffffffffffffffffffffffffffffffffffffff169050919050565b600061056f82610753565b90508073ffffffffffffffffffffffffffffffffffffffff168373ffffffffffffffffffffffffffffffffffffffff16036105df576040517f08c379a00000000000000000000000000000000000000000000000000000000081526004016105d69061219e565b60405180910390fd5b8073ffffffffffffffffffffffffffffffffffffffff166105fe610cca565b73ffffffffffffffffffffffffffffffffffffffff16148061062d575061062c81610627610cca565b610b60565b5b61066c576040517f08c379a000000000000000000000000000000000000000000000000000000000815260040161066390612230565b60405180910390fd5b6106768383610cd9565b505050565b61068c610686610cca565b82610d92565b6106cb576040517f08c379a00000000000000000000000000000000000000000000000000000000081526004016106c2906122c2565b60405180910390fd5b6106d6838383610e70565b505050565b6106f68383836040518060200160405280600081525061096f565b505050565b60007f000000000000000000000000000000000000000000000000000000000000000073ffffffffffffffffffffffffffffffffffffffff168273ffffffffffffffffffffffffffffffffffffffff16149050919050565b6000806002600084815260200190815260200160002060009054906101000a900473ffffffffffffffffffffffffffffffffffffffff169050600073ffffffffffffffffffffffffffffffffffffffff168173ffffffffffffffffffffffffffffffffffffffff16036107fb576040517f08c379a00000000000000000000000000000000000000000000000000000000081526004016107f290612354565b60405180910390fd5b80915050919050565b60008073ffffffffffffffffffffffffffffffffffffffff168273ffffffffffffffffffffffffffffffffffffffff1603610874576040517f08c379a000000000000000000000000000000000000000000000000000000000815260040161086b906123e6565b60405180910390fd5b600360008373ffffffffffffffffffffffffffffffffffffffff1673ffffffffffffffffffffffffffffffffffffffff168152602001908152602001600020549050919050565b6060600180546108ca90612069565b80601f01602080910402602001604051908101604052809291908181526020018280546108f690612069565b80156109435780601f1061091857610100808354040283529160200191610943565b820191906000526020600020905b81548152906001019060200180831161092657829003601f168201915b5050505050905090565b60078060000154905081565b61096b610964610cca565b83836110d6565b5050565b61098061097a610cca565b83610d92565b6109bf576040517f08c379a00000000000000000000000000000000000000000000000000000000081526004016109b6906122c2565b60405180910390fd5b6109cb84848484611242565b50505050565b60606109dc82610c5e565b610a1b576040517f08c379a0000000000000000000000000000000000000000000000000000000008152600401610a1290612478565b60405180910390fd5b6000600660008481526020019081526020016000208054610a3b90612069565b80601f0160208091040260200160405190810160405280929190818152602001828054610a6790612069565b8015610ab45780601f10610a8957610100808354040283529160200191610ab4565b820191906000526020600020905b815481529060010190602001808311610a9757829003601f168201915b505050505090506000610ac561129e565b90506000815103610ada578192505050610b1d565b600082511115610b0f578082604051602001610af79291906124d4565b60405160208183030381529060405292505050610b1d565b610b18846112b5565b925050505b919050565b6000610b2e600761135c565b6000610b3a6007611372565b9050610b4d610b47610cca565b82611380565b610b57818461139e565b80915050919050565b6000600560008473ffffffffffffffffffffffffffffffffffffffff1673ffffffffffffffffffffffffffffffffffffffff16815260200190815260200160002060008373ffffffffffffffffffffffffffffffffffffffff1673ffffffffffffffffffffffffffffffffffffffff16815260200190815260200160002060009054906101000a900460ff16905092915050565b60007f01ffc9a7000000000000000000000000000000000000000000000000000000007bffffffffffffffffffffffffffffffffffffffffffffffffffffffff1916827bffffffffffffffffffffffffffffffffffffffffffffffffffffffff1916149050919050565b60008073ffffffffffffffffffffffffffffffffffffffff166002600084815260200190815260200160002060009054906101000a900473ffffffffffffffffffffffffffffffffffffffff1673ffffffffffffffffffffffffffffffffffffffff1614159050919050565b6000610cd461140b565b905090565b816004600083815260200190815260200160002060006101000a81548173ffffffffffffffffffffffffffffffffffffffff021916908373ffffffffffffffffffffffffffffffffffffffff160217905550808273ffffffffffffffffffffffffffffffffffffffff16610d4c83610753565b73ffffffffffffffffffffffffffffffffffffffff167f8c5be1e5ebec7d5bd14f71427d1e84f3dd0314c0f7b2291e5b200ac8c7c3b92560405160405180910390a45050565b6000610d9d82610c5e565b610ddc576040517f08c379a0000000000000000000000000000000000000000000000000000000008152600401610dd39061256a565b60405180910390fd5b6000610de783610753565b90508073ffffffffffffffffffffffffffffffffffffffff168473ffffffffffffffffffffffffffffffffffffffff161480610e295750610e288185610b60565b5b80610e6757508373ffffffffffffffffffffffffffffffffffffffff16610e4f846104df565b73ffffffffffffffffffffffffffffffffffffffff16145b91505092915050565b8273ffffffffffffffffffffffffffffffffffffffff16610e9082610753565b73ffffffffffffffffffffffffffffffffffffffff1614610ee6576040517f08c379a0000000000000000000000000000000000000000000000000000000008152600401610edd906125fc565b60405180910390fd5b600073ffffffffffffffffffffffffffffffffffffffff168273ffffffffffffffffffffffffffffffffffffffff1603610f55576040517f08c379a0000000000000000000000000000000000000000000000000000000008152600401610f4c9061268e565b60405180910390fd5b610f6083838361143d565b610f6b600082610cd9565b6001600360008573ffffffffffffffffffffffffffffffffffffffff1673ffffffffffffffffffffffffffffffffffffffff1681526020019081526020016000206000828254610fbb91906126dd565b925050819055506001600360008473ffffffffffffffffffffffffffffffffffffffff1673ffffffffffffffffffffffffffffffffffffffff16815260200190815260200160002060008282546110129190612711565b92505081905550816002600083815260200190815260200160002060006101000a81548173ffffffffffffffffffffffffffffffffffffffff021916908373ffffffffffffffffffffffffffffffffffffffff160217905550808273ffffffffffffffffffffffffffffffffffffffff168473ffffffffffffffffffffffffffffffffffffffff167fddf252ad1be2c89b69c2b068fc378daa952ba7f163c4a11628f55a4df523b3ef60405160405180910390a46110d1838383611442565b505050565b8173ffffffffffffffffffffffffffffffffffffffff168373ffffffffffffffffffffffffffffffffffffffff1603611144576040517f08c379a000000000000000000000000000000000000000000000000000000000815260040161113b906127b3565b60405180910390fd5b80600560008573ffffffffffffffffffffffffffffffffffffffff1673ffffffffffffffffffffffffffffffffffffffff16815260200190815260200160002060008473ffffffffffffffffffffffffffffffffffffffff1673ffffffffffffffffffffffffffffffffffffffff16815260200190815260200160002060006101000a81548160ff0219169083151502179055508173ffffffffffffffffffffffffffffffffffffffff168373ffffffffffffffffffffffffffffffffffffffff167f17307eab39ab6107e8899845ad3d59bd9653f200f220920489ca2b5937696c31836040516112359190611a41565b60405180910390a3505050565b61124d848484610e70565b61125984848484611447565b611298576040517f08c379a000000000000000000000000000000000000000000000000000000000815260040161128f90612845565b60405180910390fd5b50505050565b606060405180602001604052806000815250905090565b60606112c082610c5e565b6112ff576040517f08c379a00000000000000000000000000000000000000000000000000000000081526004016112f6906128d7565b60405180910390fd5b600061130961129e565b905060008151116113295760405180602001604052806000815250611354565b80611333846115ce565b6040516020016113449291906124d4565b6040516020818303038152906040525b915050919050565b6001816000016000828254019250508190555050565b600081600001549050919050565b61139a82826040518060200160405280600081525061172e565b5050565b6113a782610c5e565b6113e6576040517f08c379a00000000000000000000000000000000000000000000000000000000081526004016113dd90612969565b60405180910390fd5b806006600084815260200190815260200160002090816114069190612b35565b505050565b6000611416336106fb565b1561142a57601436033560601c9050611439565b611432611789565b905061143a565b5b90565b505050565b505050565b60006114688473ffffffffffffffffffffffffffffffffffffffff16611791565b156115c1578373ffffffffffffffffffffffffffffffffffffffff1663150b7a02611491610cca565b8786866040518563ffffffff1660e01b81526004016114b39493929190612c5c565b6020604051808303816000875af19250505080156114ef57506040513d601f19601f820116820180604052508101906114ec9190612cbd565b60015b611571573d806000811461151f576040519150601f19603f3d011682016040523d82523d6000602084013e611524565b606091505b506000815103611569576040517f08c379a000000000000000000000000000000000000000000000000000000000815260040161156090612845565b60405180910390fd5b805181602001fd5b63150b7a0260e01b7bffffffffffffffffffffffffffffffffffffffffffffffffffffffff1916817bffffffffffffffffffffffffffffffffffffffffffffffffffffffff1916149150506115c6565b600190505b949350505050565b606060008203611615576040518060400160405280600181526020017f30000000000000000000000000000000000000000000000000000000000000008152509050611729565b600082905060005b6000821461164757808061163090612cea565b915050600a826116409190612d61565b915061161d565b60008167ffffffffffffffff81111561166357611662611d62565b5b6040519080825280601f01601f1916602001820160405280156116955781602001600182028036833780820191505090505b5090505b60008514611722576001826116ae91906126dd565b9150600a856116bd9190612d92565b60306116c99190612711565b60f81b8183815181106116df576116de612dc3565b5b60200101907effffffffffffffffffffffffffffffffffffffffffffffffffffffffffffff1916908160001a905350600a8561171b9190612d61565b9450611699565b8093505050505b919050565b61173883836117b4565b6117456000848484611447565b611784576040517f08c379a000000000000000000000000000000000000000000000000000000000815260040161177b90612845565b60405180910390fd5b505050565b600033905090565b6000808273ffffffffffffffffffffffffffffffffffffffff163b119050919050565b600073ffffffffffffffffffffffffffffffffffffffff168273ffffffffffffffffffffffffffffffffffffffff1603611823576040517f08c379a000000000000000000000000000000000000000000000000000000000815260040161181a90612e3e565b60405180910390fd5b61182c81610c5e565b1561186c576040517f08c379a000000000000000000000000000000000000000000000000000000000815260040161186390612eaa565b60405180910390fd5b6118786000838361143d565b6001600360008473ffffffffffffffffffffffffffffffffffffffff1673ffffffffffffffffffffffffffffffffffffffff16815260200190815260200160002060008282546118c89190612711565b92505081905550816002600083815260200190815260200160002060006101000a81548173ffffffffffffffffffffffffffffffffffffffff021916908373ffffffffffffffffffffffffffffffffffffffff160217905550808273ffffffffffffffffffffffffffffffffffffffff16600073ffffffffffffffffffffffffffffffffffffffff167fddf252ad1be2c89b69c2b068fc378daa952ba7f163c4a11628f55a4df523b3ef60405160405180910390a461198960008383611442565b5050565b6000604051905090565b600080fd5b600080fd5b60007fffffffff0000000000000000000000000000000000000000000000000000000082169050919050565b6119d6816119a1565b81146119e157600080fd5b50565b6000813590506119f3816119cd565b92915050565b600060208284031215611a0f57611a0e611997565b5b6000611a1d848285016119e4565b91505092915050565b60008115159050919050565b611a3b81611a26565b82525050565b6000602082019050611a566000830184611a32565b92915050565b600081519050919050565b600082825260208201905092915050565b60005b83811015611a96578082015181840152602081019050611a7b565b83811115611aa5576000848401525b50505050565b6000601f19601f8301169050919050565b6000611ac782611a5c565b611ad18185611a67565b9350611ae1818560208601611a78565b611aea81611aab565b840191505092915050565b60006020820190508181036000830152611b0f8184611abc565b905092915050565b6000819050919050565b611b2a81611b17565b8114611b3557600080fd5b50565b600081359050611b4781611b21565b92915050565b600060208284031215611b6357611b62611997565b5b6000611b7184828501611b38565b91505092915050565b600073ffffffffffffffffffffffffffffffffffffffff82169050919050565b6000611ba582611b7a565b9050919050565b611bb581611b9a565b82525050565b6000602082019050611bd06000830184611bac565b92915050565b611bdf81611b9a565b8114611bea57600080fd5b50565b600081359050611bfc81611bd6565b92915050565b60008060408385031215611c1957611c18611997565b5b6000611c2785828601611bed565b9250506020611c3885828601611b38565b9150509250929050565b600080600060608486031215611c5b57611c5a611997565b5b6000611c6986828701611bed565b9350506020611c7a86828701611bed565b9250506040611c8b86828701611b38565b9150509250925092565b600060208284031215611cab57611caa611997565b5b6000611cb984828501611bed565b91505092915050565b611ccb81611b17565b82525050565b6000602082019050611ce66000830184611cc2565b92915050565b611cf581611a26565b8114611d0057600080fd5b50565b600081359050611d1281611cec565b92915050565b60008060408385031215611d2f57611d2e611997565b5b6000611d3d85828601611bed565b9250506020611d4e85828601611d03565b9150509250929050565b600080fd5b600080fd5b7f4e487b7100000000000000000000000000000000000000000000000000000000600052604160045260246000fd5b611d9a82611aab565b810181811067ffffffffffffffff82111715611db957611db8611d62565b5b80604052505050565b6000611dcc61198d565b9050611dd88282611d91565b919050565b600067ffffffffffffffff821115611df857611df7611d62565b5b611e0182611aab565b9050602081019050919050565b82818337600083830152505050565b6000611e30611e2b84611ddd565b611dc2565b905082815260208101848484011115611e4c57611e4b611d5d565b5b611e57848285611e0e565b509392505050565b600082601f830112611e7457611e73611d58565b5b8135611e84848260208601611e1d565b91505092915050565b60008060008060808587031215611ea757611ea6611997565b5b6000611eb587828801611bed565b9450506020611ec687828801611bed565b9350506040611ed787828801611b38565b925050606085013567ffffffffffffffff811115611ef857611ef761199c565b5b611f0487828801611e5f565b91505092959194509250565b600067ffffffffffffffff821115611f2b57611f2a611d62565b5b611f3482611aab565b9050602081019050919050565b6000611f54611f4f84611f10565b611dc2565b905082815260208101848484011115611f7057611f6f611d5d565b5b611f7b848285611e0e565b509392505050565b600082601f830112611f9857611f97611d58565b5b8135611fa8848260208601611f41565b91505092915050565b600060208284031215611fc757611fc6611997565b5b600082013567ffffffffffffffff811115611fe557611fe461199c565b5b611ff184828501611f83565b91505092915050565b6000806040838503121561201157612010611997565b5b600061201f85828601611bed565b925050602061203085828601611bed565b9150509250929050565b7f4e487b7100000000000000000000000000000000000000000000000000000000600052602260045260246000fd5b6000600282049050600182168061208157607f821691505b6020821081036120945761209361203a565b5b50919050565b7f4552433732313a20617070726f76656420717565727920666f72206e6f6e657860008201527f697374656e7420746f6b656e0000000000000000000000000000000000000000602082015250565b60006120f6602c83611a67565b91506121018261209a565b604082019050919050565b60006020820190508181036000830152612125816120e9565b9050919050565b7f4552433732313a20617070726f76616c20746f2063757272656e74206f776e6560008201527f7200000000000000000000000000000000000000000000000000000000000000602082015250565b6000612188602183611a67565b91506121938261212c565b604082019050919050565b600060208201905081810360008301526121b78161217b565b9050919050565b7f4552433732313a20617070726f76652063616c6c6572206973206e6f74206f7760008201527f6e6572206e6f7220617070726f76656420666f7220616c6c0000000000000000602082015250565b600061221a603883611a67565b9150612225826121be565b604082019050919050565b600060208201905081810360008301526122498161220d565b9050919050565b7f4552433732313a207472616e736665722063616c6c6572206973206e6f74206f60008201527f776e6572206e6f7220617070726f766564000000000000000000000000000000602082015250565b60006122ac603183611a67565b91506122b782612250565b604082019050919050565b600060208201905081810360008301526122db8161229f565b9050919050565b7f4552433732313a206f776e657220717565727920666f72206e6f6e657869737460008201527f656e7420746f6b656e0000000000000000000000000000000000000000000000602082015250565b600061233e602983611a67565b9150612349826122e2565b604082019050919050565b6000602082019050818103600083015261236d81612331565b9050919050565b7f4552433732313a2062616c616e636520717565727920666f7220746865207a6560008201527f726f206164647265737300000000000000000000000000000000000000000000602082015250565b60006123d0602a83611a67565b91506123db82612374565b604082019050919050565b600060208201905081810360008301526123ff816123c3565b9050919050565b7f45524337323155524953746f726167653a2055524920717565727920666f722060008201527f6e6f6e6578697374656e7420746f6b656e000000000000000000000000000000602082015250565b6000612462603183611a67565b915061246d82612406565b604082019050919050565b6000602082019050818103600083015261249181612455565b9050919050565b600081905092915050565b60006124ae82611a5c565b6124b88185612498565b93506124c8818560208601611a78565b80840191505092915050565b60006124e082856124a3565b91506124ec82846124a3565b91508190509392505050565b7f4552433732313a206f70657261746f7220717565727920666f72206e6f6e657860008201527f697374656e7420746f6b656e0000000000000000000000000000000000000000602082015250565b6000612554602c83611a67565b915061255f826124f8565b604082019050919050565b6000602082019050818103600083015261258381612547565b9050919050565b7f4552433732313a207472616e736665722066726f6d20696e636f72726563742060008201527f6f776e6572000000000000000000000000000000000000000000000000000000602082015250565b60006125e6602583611a67565b91506125f18261258a565b604082019050919050565b60006020820190508181036000830152612615816125d9565b9050919050565b7f4552433732313a207472616e7366657220746f20746865207a65726f2061646460008201527f7265737300000000000000000000000000000000000000000000000000000000602082015250565b6000612678602483611a67565b91506126838261261c565b604082019050919050565b600060208201905081810360008301526126a78161266b565b9050919050565b7f4e487b7100000000000000000000000000000000000000000000000000000000600052601160045260246000fd5b60006126e882611b17565b91506126f383611b17565b925082821015612706576127056126ae565b5b828203905092915050565b600061271c82611b17565b915061272783611b17565b9250827fffffffffffffffffffffffffffffffffffffffffffffffffffffffffffffffff0382111561275c5761275b6126ae565b5b828201905092915050565b7f4552433732313a20617070726f766520746f2063616c6c657200000000000000600082015250565b600061279d601983611a67565b91506127a882612767565b602082019050919050565b600060208201905081810360008301526127cc81612790565b9050919050565b7f4552433732313a207472616e7366657220746f206e6f6e20455243373231526560008201527f63656976657220696d706c656d656e7465720000000000000000000000000000602082015250565b600061282f603283611a67565b915061283a826127d3565b604082019050919050565b6000602082019050818103600083015261285e81612822565b9050919050565b7f4552433732314d657461646174613a2055524920717565727920666f72206e6f60008201527f6e6578697374656e7420746f6b656e0000000000000000000000000000000000602082015250565b60006128c1602f83611a67565b91506128cc82612865565b604082019050919050565b600060208201905081810360008301526128f0816128b4565b9050919050565b7f45524337323155524953746f726167653a2055524920736574206f66206e6f6e60008201527f6578697374656e7420746f6b656e000000000000000000000000000000000000602082015250565b6000612953602e83611a67565b915061295e826128f7565b604082019050919050565b6000602082019050818103600083015261298281612946565b9050919050565b60008190508160005260206000209050919050565b60006020601f8301049050919050565b600082821b905092915050565b6000600883026129eb7fffffffffffffffffffffffffffffffffffffffffffffffffffffffffffffffff826129ae565b6129f586836129ae565b95508019841693508086168417925050509392505050565b6000819050919050565b6000612a32612a2d612a2884611b17565b612a0d565b611b17565b9050919050565b6000819050919050565b612a4c83612a17565b612a60612a5882612a39565b8484546129bb565b825550505050565b600090565b612a75612a68565b612a80818484612a43565b505050565b5b81811015612aa457612a99600082612a6d565b600181019050612a86565b5050565b601f821115612ae957612aba81612989565b612ac38461299e565b81016020851015612ad2578190505b612ae6612ade8561299e565b830182612a85565b50505b505050565b600082821c905092915050565b6000612b0c60001984600802612aee565b1980831691505092915050565b6000612b258383612afb565b9150826002028217905092915050565b612b3e82611a5c565b67ffffffffffffffff811115612b5757612b56611d62565b5b612b618254612069565b612b6c828285612aa8565b600060209050601f831160018114612b9f5760008415612b8d578287015190505b612b978582612b19565b865550612bff565b601f198416612bad86612989565b60005b82811015612bd557848901518255600182019150602085019450602081019050612bb0565b86831015612bf25784890151612bee601f891682612afb565b8355505b6001600288020188555050505b505050505050565b600081519050919050565b600082825260208201905092915050565b6000612c2e82612c07565b612c388185612c12565b9350612c48818560208601611a78565b612c5181611aab565b840191505092915050565b6000608082019050612c716000830187611bac565b612c7e6020830186611bac565b612c8b6040830185611cc2565b8181036060830152612c9d8184612c23565b905095945050505050565b600081519050612cb7816119cd565b92915050565b600060208284031215612cd357612cd2611997565b5b6000612ce184828501612ca8565b91505092915050565b6000612cf582611b17565b91507fffffffffffffffffffffffffffffffffffffffffffffffffffffffffffffffff8203612d2757612d266126ae565b5b600182019050919050565b7f4e487b7100000000000000000000000000000000000000000000000000000000600052601260045260246000fd5b6000612d6c82611b17565b9150612d7783611b17565b925082612d8757612d86612d32565b5b828204905092915050565b6000612d9d82611b17565b9150612da883611b17565b925082612db857612db7612d32565b5b828206905092915050565b7f4e487b7100000000000000000000000000000000000000000000000000000000600052603260045260246000fd5b7f4552433732313a206d696e7420746f20746865207a65726f2061646472657373600082015250565b6000612e28602083611a67565b9150612e3382612df2565b602082019050919050565b60006020820190508181036000830152612e5781612e1b565b9050919050565b7f4552433732313a20746f6b656e20616c7265616479206d696e74656400000000600082015250565b6000612e94601c83611a67565b9150612e9f82612e5e565b602082019050919050565b60006020820190508181036000830152612ec381612e87565b905091905056fea2646970667358221220e2af3be04953c31c709a2b23f165485c1531f07504eee94845c0e39bdbcc271664736f6c634300080f0033",
  "immutableReferences": {
    "113": [
      {
        "length": 32,
        "start": 1791
      }
    ]
  },
  "source": "// SPDX-License-Identifier: MIT\npragma solidity ^0.8.5;\n\nimport \"@openzeppelin/contracts/token/ERC721/extensions/ERC721URIStorage.sol\";\nimport \"@openzeppelin/contracts/utils/Counters.sol\";\nimport \"@openzeppelin/contracts/metatx/ERC2771Context.sol\";\n\n/// @title MerchCoinNFT\n/// @notice This contract is used to create an NFT token that can be minted and owned by anyone.\n/// @dev Inherits from ERC721URIStorage contract for ERC-721 token functionality.\n/// @dev Inherits from ERC2771Context contract for Meta Transaction functionality.\n/// @dev Uses Counters library for tracking tokenId of the minted tokens.\n\ncontract NFT is ERC2771Context, ERC721URIStorage {\n    using Counters for Counters.Counter;\n    Counters.Counter public tokenCount;\n\n    constructor(address _trustedForwarder)\n        ERC2771Context(_trustedForwarder)\n        ERC721(\"MerchCoinNFT\", \"MerchNFT\")\n    {}\n\n    function mint(string memory _tokenURI) external returns (uint256) {\n        tokenCount.increment();\n        uint256 newItemId = tokenCount.current();\n        _safeMint(_msgSender(), newItemId);\n        _setTokenURI(newItemId, _tokenURI);\n        return newItemId;\n    }\n\n    /// @notice Overrides _msgSender() function from Context.sol\n    /// @return address The current execution context's sender address\n    function _msgSender()\n        internal\n        view\n        override(Context, ERC2771Context)\n        returns (address)\n    {\n        return ERC2771Context._msgSender();\n    }\n\n    /// @notice Overrides _msgData() function from Context.sol\n    /// @return address The current execution context's data\n    function _msgData()\n        internal\n        view\n        override(Context, ERC2771Context)\n        returns (bytes calldata)\n    {\n        return ERC2771Context._msgData();\n    }\n}\n",
  "sourcePath": "/home/webxpert/workspace/lense/mrcc-npm/contracts/NFT.sol",
  "compiler": {
    "name": "solc",
    "version": "0.8.15+commit.e14f2714.Emscripten.clang"
  },
  "schemaVersion": "3.4.8",
  "updatedAt": "2022-07-21T20:45:21.433Z",
  "networkType": "ethereum",
  "devdoc": {
    "details": "Inherits from ERC721URIStorage contract for ERC-721 token functionality.Inherits from ERC2771Context contract for Meta Transaction functionality.Uses Counters library for tracking tokenId of the minted tokens.",
    "kind": "dev",
    "methods": {
      "approve(address,uint256)": {
        "details": "See {IERC721-approve}."
      },
      "balanceOf(address)": {
        "details": "See {IERC721-balanceOf}."
      },
      "getApproved(uint256)": {
        "details": "See {IERC721-getApproved}."
      },
      "isApprovedForAll(address,address)": {
        "details": "See {IERC721-isApprovedForAll}."
      },
      "name()": {
        "details": "See {IERC721Metadata-name}."
      },
      "ownerOf(uint256)": {
        "details": "See {IERC721-ownerOf}."
      },
      "safeTransferFrom(address,address,uint256)": {
        "details": "See {IERC721-safeTransferFrom}."
      },
      "safeTransferFrom(address,address,uint256,bytes)": {
        "details": "See {IERC721-safeTransferFrom}."
      },
      "setApprovalForAll(address,bool)": {
        "details": "See {IERC721-setApprovalForAll}."
      },
      "supportsInterface(bytes4)": {
        "details": "See {IERC165-supportsInterface}."
      },
      "symbol()": {
        "details": "See {IERC721Metadata-symbol}."
      },
      "tokenURI(uint256)": {
        "details": "See {IERC721Metadata-tokenURI}."
      },
      "transferFrom(address,address,uint256)": {
        "details": "See {IERC721-transferFrom}."
      }
    },
    "title": "MerchCoinNFT",
    "version": 1
  },
  "userdoc": {
    "kind": "user",
    "methods": {},
    "notice": "This contract is used to create an NFT token that can be minted and owned by anyone.",
    "version": 1
  }
}